:100000004AC064C016C262C061C060C05FC05EC04A
:100010005DC05CC05BC05AC059C058C057C0040323
:1000200009040E033100770074002E00650075008E
:1000300010035500530042002D00570044005400A7
:100040001201100102000008C016E10500010102C2
:10005000000109024300020100803209040000018E
:1000600002020100052400100104240202052406F6
:1000700000010524010301070583030800FF0904AB
:100080000100020A00000007050102020000070546
:1000900081020800000011241FBECFE5D2E0DEBFC0
:1000A000CDBF10E0A0E6B0E0E4EFFAE002C00590BA
:1000B0000D92AC36B107D9F710E0ACE6B0E001C064
:1000C0001D92AF3BB107E1F789D412C599CFAC9A25
:1000D0008BB780628BBF8BE4809388008093B300E2
:1000E0008AE5809387008093B20008951F93DC0116
:1000F000162F8091B20084FF07C08091B30098E86A
:1001000089278093B30003C08AE58093B200912FC2
:10011000E4EBF0E08D91819391501916DCF384EBC0
:1001200090E0612F6FD11C5F1093B2001F91089572
:100130001F93DC01162F8091870084FF07C08091F8
:10014000880098E889278093880003C08AE5809317
:100150008700912FE9E8F0E08D9181939150191675
:10016000DCF389E890E0612F4DD11C5F109387008C
:100170001F9108951F93CF93DF9360919800635070
:1001800067FDB2C080919500CCE0D0E0C81BD109DA
:10019000C456DF4F80919400803118F4CE0179D39A
:1001A0009DC08D3209F08AC0683009F097C083EC99
:1001B00080937C008AE58093600010926D008881B6
:1001C000807621F0CE0139D3282F65C09A81109214
:1001D00085008981882321F41092860022E054C092
:1001E000853019F4909399004EC08630B1F58B811B
:1001F000813041F480E490E09093970080939600E2
:1002000022E127C0823021F4CE0102D3282F21C061
:100210008330F1F4992341F48EE190E090939700BC
:100220008093960024E015C0913041F482E290E082
:1002300090939700809396002EE00BC0923041F48B
:1002400080E390E0909397008093960020E101C0B6
:1002500020E080E480936D001EC0883021F421E00E
:100260008BE990E013C0893019F490939B000BC088
:100270008A3011F421E008C08B3029F48BE480939C
:1002800088008093B30020E085E890E09093970089
:100290008093960009C02F3F39F4888187FD2E8115
:1002A00080E880936D0006C08F81882319F48E81C9
:1002B000821708F0822F8093610010C080916D003A
:1002C00087FF0CC0CE01E3D28F3F21F48EE18093F3
:1002D000600004C0882311F01092610080919800A2
:1002E000181614F4109298008091600084FF58C092
:1002F000809161008F3F09F453C0182F893008F0B6
:1003000018E0811B8093610080917C0098E8892728
:1003100080937C00112391F180916D0087FF08C0CC
:100320008DE790E0612FA8D2182F893098F526C06C
:10033000209196003091970086FF0DC0ADE7B0E0A8
:1003400080E090E0F901E80FF91FE491ED93019648
:100350001817C1F708C0912FD901EDE7F0E08D9192
:1003600081939150E1F71150812F90E01F5F01962A
:10037000820F931F90939700809396008DE790E0F3
:10038000612F40D0612F6C5F6C3041F08FEF809314
:10039000610004C08FEF809361006EE160936000A4
:1003A00094E186B3887131F49150D9F71092990095
:1003B0001092930010E0992309F411E080916C00F1
:1003C000811739F0112319F4F894ABD17894109374
:1003D0006C00DF91CF911F910895A82FB92F80E075
:1003E00090E041E050EA609530E009C02D9182270D
:1003F0009795879510F084279527305EC8F36F5F37
:10040000A8F30895EADF8D939D930895A6E08827C9
:100410009927AA9569F00197E1F3B399FCCFB39BB3
:10042000FECF81E09927A6B3019611F0A871D9F704
:100430000895CF93CFB7CF93C395B39BE9F7B39B01
:100440000BC0B39B09C0B39B07C0B39B05C0B39B54
:1004500003C0B39B01C0D8C00F92DF93C091950039
:10046000DD27C456DF4F012EB39B03C0DF910F90F1
:10047000E6CF2F930F931F934F932FEF4F6F06B33A
:1004800003FB20F95F933F9350E03BE065C016B358
:100490000126502953FDC89556B3012703FB25F9C2
:1004A0002F7306B3B1F05027102713FB26F906B2BD
:1004B0002230F0F000C016B3012703FB27F9012614
:1004C000502906B22430E8F54F77206816B30000B3
:1004D000F6CF50274F7D206206B2102F000000C0DB
:1004E00006B300265029102713FB26F906B2E2CFE7
:1004F0004F7B06B3206400C0DACF01265029187163
:1005000006B269F14E7F2160012F16B328C0002684
:1005100050294D7F06B22260102F29C00126502994
:100520004B7F06B22460012F2DC016B3012650293F
:10053000477F2860000006B22EC04F7E06B32061C0
:1005400030C0422706B3499300265029102706B22F
:100550004FEF13FB20F9297F16B379F2187159F187
:100560000126502906B2012703FB21F9237F06B398
:1005700071F2002650293150D0F006B2102713FB3B
:1005800022F9277E16B351F201265029012703FBD9
:1005900006B223F92F7C49F2000006B3102713FBA3
:1005A00024F90026502906B22F7939F270CF10E2D3
:1005B0001ABF00271CC03B503195C31BD04010E22E
:1005C0001ABF0881033C21F10B3411F120919300F3
:1005D0001981110F1213EDCF4A81441F093669F1B9
:1005E0000D3211F0013E29F74F7009F0042F0093EE
:1005F0009A003F915F914F911F910F912F91DF9141
:100600000F90CAB7C5FD18CFCF91CFBFCF91189526
:1006100020919A00222369F3109198001123D1F5BB
:100620003430D2F1309398002093940010919500CB
:100630003BE0311B309395002FC0009198000130B2
:100640004CF50AE54F7049F43091600034FD25C047
:1006500000936000CCE7D0E024C0433049F03091F3
:10066000870034FD1AC000938700C8E8D0E019C0A5
:100670003091B20034FD11C00093B200C3EBD0E062
:1006800010C0052710E000C021C0052710E0C89564
:1006900008BB14C03AE501C032ED032EC0E0D0E043
:1006A00032E017B31861C39A08B317BB58E120E8CA
:1006B0004FEF20FF052708BB279517951C3F28F70C
:1006C00000004552B0F720FF0527279508BB179576
:1006D0001C3FB8F629913A9561F7077E1091990071
:1006E000110F08BBC250D04011F01093930010E2DC
:1006F0001ABF086017B3177E402F477E54E05A9503
:10070000F1F708BB17BB48BB74CFE199FECF1FBA06
:100710001EBAE09A8DB38F3F11F481B78C5F81BF11
:100720000895CF92DF92EF92FF920F931F93CF9392
:10073000DF93E1B66BDE6C0188E981BF67DE84532D
:10074000994014F400E801C000E080E4F82EC0E015
:10075000D0E0102F1F0D11BF59DE9C0189E024331A
:1007600038070CF0102FF6942196C730D10511F000
:10077000012FEFCF2453394037FF03C03095219527
:100780003F4FC6018453994097FF03C090958195D0
:100790009F4F8217930714F4E1BE31C0125011BF6E
:1007A0001E5F7901C12FD0E0229610C02FDE845346
:1007B000994097FF03C0909581959F4F8E159F0597
:1007C00014F411B77C0181B78F5F81BF81B790E0CE
:1007D000C817D9075CF711BFE199FECF1FBA1EBA3F
:1007E000E09A8DB3811759F0E199FECF1CBA1FBA78
:1007F0001EBA1DBB0FB6F894E29AE19A0FBEDF91C4
:10080000CF911F910F91FF90EF90DF90CF900895BF
:10081000FC018381813049F480E490E0909397005B
:100820008093960080914000089582E590E0909337
:1008300097008093960083E40895FC012081822F25
:1008400080768032B9F49181892F8052823010F401
:100850008FEF0895923239F480917000882319F453
:1008600082E08093700027FD05C081E08093BE0088
:1008700080E0089580E00895FC01108211821282C8
:1008800013821482158288E0868387E0089581E0D0
:100890000895FC017091790040917A0050917B009D
:1008A00020916E0030916F00A1E0B0E089C090818E
:1008B0002230310509F460C02330310540F42115A0
:1008C000310591F02130310509F078C04BC024305A
:1008D000310509F465C02430310508F459C02530CC
:1008E000310509F06BC061C09C3489F09D3448F437
:1008F000903308F463C0993398F09F3309F05EC0D9
:1009000021C09F3439F0923509F058C006C021E06B
:1009100030E054C022E030E051C024E030E04EC06E
:100920009053AD0102C0440F551F9A95E2F7415014
:1009300050405695542F442757954795C09AB898DC
:10094000C1983CC0B09902C080E301C081E38093AC
:100950007100CA01880F892F881F990B809372003C
:1009600072E02CC0892F8053823030F5903311F023
:10097000C19A22C0C19820C0963419F09E34E1F487
:1009800003C023E030E01AC0C09AB898C19805C0EF
:10099000963491F4B89AC098C19A40E050E00CC0E7
:1009A000933551F425E030E009C0943529F4B89A24
:1009B000C098C19A40EC5FEF20E030E03196615082
:1009C000662309F074CF7093790050937B004093B5
:1009D0007A0030936F0020936E0008950F931F9359
:1009E000CF93DF932EE088E190E00FB6F894A895BE
:1009F00081BD0FBE21BD89DE87EE88BB88E187BB44
:100A0000A89584EC99E02CE931E0F9013197F1F7F0
:100A10000197D9F717BAB99A10927B0010927A0011
:100A2000C09AB898C19853DB109270001092BE0023
:100A3000789400EC1FEFC8EED0E8A8959BDB80917E
:100A4000870084FF12C060917900662321F48091B1
:100A5000BE00882351F081E790E06ADB8091790045
:100A600088708093BE00109279008091980087FF73
:100A700002C01092980090917000992399F0809193
:100A8000B20084FF0FC0923021F482E690E068E06B
:100A900003C08AE690E062E029DB8091700081501B
:100AA0008093700080917A0090917B00181619064F
:100AB0007CF4019790937B0080937A00892BA1F4BA
:100AC000B89AC098C19A10937B0000937A000CC02A
:100AD000009751F0019690937B0080937A00892BC8
:100AE00019F4C09AB898C198CE010197F1F7A5CF33
:040AF000F894FFCFA8
:0C0AF4005AFFA1200000000002000300D7
:00000001FF
